:100000000C942A000C9447000C9447000C94470071
:100010000C9447000C9447000C9447000C94470044
:100020000C9447000C9447000C9447000C94470034
:100030000C9447000C9447000C9447000C94470024
:100040000C9447000C9447000C9447000C94470014
:100050000C94470011241FBECFE5D8E0DEBFCDBF12
:1000600010E0A0E6B0E0ECE7F8E302C005900D92E6
:10007000A239B107D9F710E0A2E9B0E001C01D92A2
:10008000AC3AB107E1F70E94361A0C943C1C0C9470
:100090000000EF92FF920F931F937B018C0120E0F1
:1000A00030E040E05FE40E94490388238CF0C801FF
:1000B000B70120E030E040E05FE40E94C1010E940F
:1000C000A9039B01AC01205030404040504806C07D
:1000D000C801B7010E94A9039B01AC01B901CA0183
:1000E0001F910F91FF90EF900895A0E0B0E0EBE733
:1000F000F0E00C94D41BDC012B01FA019C919230AE
:1001000008F439C1EB018881823008F433C194309E
:1001100069F4843009F02FC111969C91119789815F
:10012000981709F428C1ABE6B0E025C1843009F482
:1001300021C18230A9F4923009F01DC19A01AD01AC
:1001400088E0EA010990AE01E90109929E0181501F
:10015000C1F7E201898111969C918923818308C1AD
:10016000923009F407C112962D903C901397EB0141
:100170008A819B811496AD90BD90CD90DC901797AD
:10018000EC80FD800E811F819101281B390BB90184
:1001900037FF04C066277727621B730B6032710537
:1001A0000CF061C0121613066CF537014801062EDB
:1001B00004C096948794779467940A94D2F721E0C8
:1001C00030E040E050E004C0220F331F441F551FB1
:1001D0006A95D2F721503040404050402E213F21B7
:1001E00040235123211531054105510521F021E01E
:1001F00030E040E050E079018A01E628F72808293C
:1002000019293CC0232BD1F1260E371E350146019A
:10021000062E04C096948794779467940A94D2F734
:1002200021E030E040E050E004C0220F331F441FC3
:10023000551F6A95D2F721503040404050402A2146
:100240003B214C215D21211531054105510521F04E
:1002500021E030E040E050E059016A01A628B728CB
:10026000C828D9280BC0821593052CF01C01AA249C
:10027000BB24650103C0EE24FF24870111969C91E5
:10028000D20111968C91981709F445C0992339F041
:10029000A80197012A193B094C095D0906C0A6016E
:1002A00095012E193F09400B510B57FD08C01182D3
:1002B0003382228224833583468357831DC081E0A5
:1002C00081833382228288279927DC01821B930B4A
:1002D000A40BB50B84839583A683B7830DC0220F2F
:1002E000331F441F551F24833583468357838281E0
:1002F000938101979383828324813581468157813D
:10030000DA01C9010197A109B1098F5F9F4FAF4F72
:10031000BF4328F30BC0918333822282EA0CFB1C7B
:100320000C1D1D1DE482F5820683178383E0808304
:10033000248135814681578157FF1AC0C901AA27F8
:1003400097FDA095BA2F81709070A070B0705695EF
:10035000479537952795822B932BA42BB52B848318
:100360009583A683B7838281938101969383828349
:10037000DF0101C0D201CD01CDB7DEB7E2E10C94BF
:10038000F01BA0E2B0E0E7ECF1E00C94E01B698325
:100390007A838B839C832D833E834F835887E9E048
:1003A000EE2EF12CEC0EFD1ECE010196B7010E943F
:1003B000D2048E010F5E1F4FCE010596B8010E9438
:1003C000D2048A8991E089278A8BC701B801AE01DE
:1003D000475E5F4F0E9475000E94FD03A096E6E015
:1003E0000C94FC1BA0E2B0E0E8EFF1E00C94E01B01
:1003F00069837A838B839C832D833E834F835887C5
:10040000F9E0EF2EF12CEC0EFD1ECE010196B701A6
:100410000E94D2048E010F5E1F4FCE010596B801D7
:100420000E94D204C701B801AE01475E5F4F0E942F
:1004300075000E94FD03A096E6E00C94FC1BA0E270
:10044000B0E0E5E2F2E00C94D41B69837A838B83FD
:100450009C832D833E834F835887CE010196BE0136
:10046000675F7F4F0E94D204CE010596BE016F5E8A
:100470007F4F0E94D2049985923088F0898982301A
:10048000C8F0943019F4823051F404C0843029F457
:10049000923081F48BE690E0C6C0923049F420E0BF
:1004A0009A858A89981321E02A87CE010996BBC0D4
:1004B000823049F420E09A858A89981321E02A8BBA
:1004C000CE014196B0C02D843E844F8458886D88FB
:1004D0007E888F88988CEE24FF248701AA24BB2471
:1004E000650140E050E060E070E0E0E0F0E0C10174
:1004F00081709070892BE9F0E60CF71C081D191D1E
:100500009A01AB012A0D3B1D4C1D5D1D80E090E062
:10051000A0E0B0E0E614F7040805190520F481E036
:1005200090E0A0E0B0E0BA01A901480F591F6A1F8E
:100530007B1FAA0CBB1CCC1CDD1C97FE08C081E0F5
:1005400090E0A0E0B0E0A82AB92ACA2ADB2A3196B6
:10055000E032F10549F0660C771C881C991C569412
:10056000479437942794C3CFFA85EA892B893C892D
:100570008B859C85280F391F2E5F3F4F17C0CA01FE
:1005800081709070892B61F016950795F794E79428
:1005900080E090E0A0E0B0E8E82AF92A0A2B1B2BC3
:1005A00076956795579547952F5F3F4F77FDE7CF36
:1005B0000CC0440F551F661F771F17FD4160EE0CDE
:1005C000FF1C001F111F21503040403090E05907A0
:1005D00090E0690790E4790760F32B8F3C8FDB0193
:1005E000CA018F779070A070B07080349105A1051A
:1005F000B10561F447FD0AC0E114F10401051105DC
:1006000029F0405C5F4F6F4F7F4F40781A8EFE1786
:1006100011F081E08A8F4D8F5E8F6F8F78A383E01A
:10062000898FCE0149960E94FD03A096E2E10C94C9
:10063000F01BA8E1B0E0EFE1F3E00C94E01B69836C
:100640007A838B839C832D833E834F83588789E0F5
:10065000E82EF12CEC0EFD1ECE010196B7010E9492
:10066000D2048E010F5E1F4FCE010596B8010E9485
:10067000D2048985823040F08989823028F0C70110
:10068000B8010E944A0501C08FEF6896E6E00C941D
:10069000FC1BA8E1B0E0EFE4F3E00C94E01B6983FD
:1006A0007A838B839C832D833E834F83588789E095
:1006B000E82EF12CEC0EFD1ECE010196B7010E9432
:1006C000D2048E010F5E1F4FCE010596B8010E9425
:1006D000D2048985823040F08989823028F0C701B0
:1006E000B8010E944A0501C08FEF6896E6E00C94BD
:1006F000FC1BA8E1B0E0EFE7F3E00C94E01B69839A
:100700007A838B839C832D833E834F83588789E034
:10071000E82EF12CEC0EFD1ECE010196B7010E94D1
:10072000D2048E010F5E1F4FCE010596B8010E94C4
:10073000D2048985823040F08989823028F0C7014F
:10074000B8010E944A0501C081E06896E6E00C9479
:10075000FC1BACE0B0E0EFEAF3E00C94E41B69832F
:100760007A838B839C83CE010196BE016B5F7F4FA2
:100770000E94D2048D81823061F1823050F1843048
:1007800021F48E81882351F12EC02F81388537FDC9
:1007900020C06E812F3131051CF06623F9F023C093
:1007A0008EE190E0821B930B29853A854B855C8511
:1007B00004C056954795379527958A95D2F76623B5
:1007C000B1F050954095309521953F4F4F4F5F4F79
:1007D0000EC020E030E040E050E009C02FEF3FEFD6
:1007E0004FEF5FE704C020E030E040E050E8B9019F
:1007F000CA012C96E2E00C94001CDF92EF92FF926B
:100800000F931F93FC01E480F58006811781D1804E
:100810008081823048F480E090E0A0E1B0E0E82AF6
:10082000F92A0A2B1B2BA5C0843009F49FC0823003
:1008300021F4EE24FF24870105C0E114F104010531
:10084000110519F4E0E0F0E096C0628173819FEF3A
:10085000623879070CF05BC022E83FEF261B370BAC
:100860002A3131052CF020E030E040E050E02AC091
:10087000B801A701022E04C0769567955795479554
:100880000A94D2F781E090E0A0E0B0E004C0880FC5
:10089000991FAA1FBB1F2A95D2F70197A109B10979
:1008A0008E219F21A023B1230097A105B10521F03E
:1008B00081E090E0A0E0B0E09A01AB01282B392B59
:1008C0004A2B5B2BDA01C9018F779070A070B07052
:1008D00080349105A105B10539F427FF09C0205CDA
:1008E0003F4F4F4F5F4F04C0215C3F4F4F4F5F4F13
:1008F000E0E0F0E02030A0E03A07A0E04A07A0E402
:100900005A0710F0E1E0F0E079018A0127C0603871
:10091000710564F5FB01E158FF4FD801C7018F77DE
:100920009070A070B07080349105A105B10539F4C4
:10093000E7FE0DC080E490E0A0E0B0E004C08FE3EB
:1009400090E0A0E0B0E0E80EF91E0A1F1B1F17FFA1
:1009500005C016950795F794E794319687E01695AC
:100960000795F794E7948A95D1F705C0EE24FF2404
:100970008701EFEFF0E06E2F679566276795902F60
:100980009F77D794DD24D7948E2F8695492F462BB9
:10099000582F5D29B701CA011F910F91FF90EF9069
:1009A000DF900895FC01DB01408151812281622F9B
:1009B0006F7770E0221F2227221F9381892F880FD3
:1009C000822B282F30E0991F9927991F11969C930D
:1009D000119721153105A9F54115510561057105DD
:1009E00011F482E037C082E89FEF13969C938E93B8
:1009F00012979A01AB0167E0220F331F441F551F66
:100A00006A95D1F783E08C930DC0220F331F441FEA
:100A1000551F12968D919C911397019713969C9355
:100A20008E931297203080E0380780E0480780E4FA
:100A3000580758F314962D933D934D935C93179755
:100A400008952F3F310579F4411551056105710570
:100A500019F484E08C93089564FF03C081E08C93C3
:100A600012C01C9210C02F57304013963C932E9307
:100A7000129783E08C9387E0440F551F661F771F02
:100A80008A95D1F7706414964D935D936D937C9322
:100A9000179708951F93DC01FB019C91923008F495
:100AA00047C08081823008F443C0943051F41196DD
:100AB0001C91843099F58181682F70E0611B710968
:100AC0003FC0843021F0923031F48230B9F181811D
:100AD000882389F12DC011961C9111978230F1F075
:100AE00081811817D9F412962D913C911397828128
:100AF00093818217930794F028173907BCF0149656
:100B00008D919D910D90BC91A02D248135814681C0
:100B10005781281739074A075B0718F4112341F05A
:100B20000AC082179307A407B50740F4112319F0F0
:100B300061E070E005C06FEF7FEF02C060E070E041
:100B4000CB011F910895DF93CF93CDB7DEB7AAE312
:100B5000B0E0EAE3F0E080818E608C93AAE3B0E03D
:100B6000EAE3F0E08081806F8C9382E00E94C4050C
:100B700088E20E94C4058CE00E94C40581E00E94C6
:100B8000C405CF91DF9108950F931F93DF93CF9307
:100B9000CDB7DEB7C356D0400FB6F894DEBF0FBE58
:100BA000CDBFFE01ED59FF4F8083ABE3B0E0EBE337
:100BB000F0E080818D7F8C93ABE3B0E0EBE3F0E07D
:100BC00080818B7F8C93FE01E15AFF4F80E090E0A3
:100BD000A0E8BFE380839183A283B3838E01055A8B
:100BE0001F4FFE01E15AFF4F608171818281938125
:100BF00020E030E04AE753E40E941F02DC01CB0111
:100C0000F80180839183A283B383FE01E55AFF4FED
:100C1000608171818281938120E030E040E85FE370
:100C20000E947903882344F4FE01E75AFF4F81E0D4
:100C300090E09183808364C0FE01E55AFF4F60819C
:100C400071818281938120E03FEF4FE757E40E945A
:100C5000190318160CF043C0FE01E15AFF4F6081E2
:100C600071818281938120E030E040E251E40E9472
:100C70001F02DC01CB018E01075A1F4FBC01CD01C1
:100C80000E944900DC01CB01F801918380831FC0E1
:100C9000FE01E95AFF4F89E190E091838083FE01D4
:100CA000E95AFF4F808191810197F1F7FE01E95ADE
:100CB000FF4F91838083DE01A75ABF4FFE01E75AA1
:100CC000FF4F80819181019711969C938E93FE0135
:100CD000E75AFF4F808191810097D1F627C08E019E
:100CE000075A1F4FFE01E55AFF4F608171818281D3
:100CF00093810E944900DC01CB01F801918380833C
:100D0000DE01AB5ABF4FFE01E75AFF4F8081918150
:100D10008D939C93FE01EB5AFF4F80819181019747
:100D2000F1F7FE01EB5AFF4F91838083ABE3B0E014
:100D3000EBE3F0E0808188608C93FE01EF5AFF4F77
:100D400080E090E0A0E8BFE380839183A283B38337
:100D50008E01035B1F4FFE01EF5AFF4F60817181CF
:100D60008281938120E030E04AE753E40E941F0231
:100D7000DC01CB01F80180839183A283B383FE0160
:100D8000E35BFF4F608171818281938120E030E0DD
:100D900040E85FE30E947903882344F4FE01E55BA9
:100DA000FF4F81E090E09183808364C0FE01E35BAC
:100DB000FF4F608171818281938120E03FEF4FE797
:100DC00057E40E94190318160CF043C0FE01EF5AB5
:100DD000FF4F608171818281938120E030E040E2A9
:100DE00051E40E941F02DC01CB018E01055B1F4F05
:100DF000BC01CD010E944900DC01CB01F8019183C7
:100E000080831FC0FE01E75BFF4F89E190E0918383
:100E10008083FE01E75BFF4F808191810197F1F7AD
:100E2000FE01E75BFF4F91838083DE01A55BBF4F2F
:100E3000FE01E55BFF4F80819181019711969C93A4
:100E40008E93FE01E55BFF4F808191810097D1F683
:100E500027C08E01055B1F4FFE01E35BFF4F6081E2
:100E60007181828193810E944900DC01CB01F801EC
:100E700091838083DE01A95BBF4FFE01E55BFF4FDD
:100E8000808191818D939C93FE01E95BFF4F80816E
:100E900091810197F1F7FE01E95BFF4F9183808318
:100EA000ABE3B0E0EBE3F0E08081982F9F70FE01B0
:100EB000ED59FF4F8081807F892B8C93FE01ED5B84
:100EC000FF4F80E090E0A0E8BFE380839183A2839E
:100ED000B3838E01015C1F4FFE01ED5BFF4F60810C
:100EE00071818281938120E030E04AE753E40E94DF
:100EF0001F02DC01CB01F80180839183A283B383BD
:100F0000FE01FF96608171818281938120E030E053
:100F100040E85FE30E94790388232CF481E090E0AD
:100F20009EAF8DAF46C0FE01FF96608171818281C8
:100F3000938120E03FEF4FE757E40E941903181612
:100F400064F5FE01ED5BFF4F6081718182819381C9
:100F500020E030E040E251E40E941F02DC01CB01BE
:100F6000BC01CD010E944900DC01CB019EAF8DAFD9
:100F70000FC089E190E09CAF8BAF8BAD9CAD01972A
:100F8000F1F79CAF8BAF8DAD9EAD01979EAF8DAF4E
:100F90008DAD9EAD009769F716C0FE01FF9660818A
:100FA0007181828193810E944900DC01CB019EAF57
:100FB0008DAF8DAD9EAD9AAF89AF89AD9AAD0197DA
:100FC000F1F79AAF89AFABE3B0E0EBE3F0E08081FB
:100FD000877F8C9380E090E0A0E8BFE38DAB9EAB71
:100FE000AFABB8AF6DA97EA98FA998AD20E030E076
:100FF0004AE753E40E941F02DC01CB0189AB9AABA4
:10100000ABABBCAB69A97AA98BA99CA920E030E065
:1010100040E85FE30E94790388232CF481E090E0AC
:1010200098AB8FA73FC069A97AA98BA99CA920E09A
:101030003FEF4FE757E40E94190318164CF56DA9CE
:101040007EA98FA998AD20E030E040E251E40E94F3
:101050001F02DC01CB01BC01CD010E944900DC0173
:10106000CB0198AB8FA70FC089E190E09EA78DA719
:101070008DA59EA50197F1F79EA78DA78FA598A98D
:10108000019798AB8FA78FA598A9009769F714C00F
:1010900069A97AA98BA99CA90E944900DC01CB010E
:1010A00098AB8FA78FA598A99CA78BA78BA59CA56C
:1010B0000197F1F79CA78BA7ABE3B0E0EBE3F0E07F
:1010C000808188608C9380E090E0A0E8BFE38FA3EC
:1010D00098A7A9A7BAA76FA178A589A59AA520E086
:1010E00030E04AE753E40E941F02DC01CB018BA3EE
:1010F0009CA3ADA3BEA36BA17CA18DA19EA120E06A
:1011000030E040E85FE30E94790388232CF481E01B
:1011100090E09AA389A33FC06BA17CA18DA19EA161
:1011200020E03FEF4FE757E40E94190318164CF5F3
:101130006FA178A589A59AA520E030E040E251E4AE
:101140000E941F02DC01CB01BC01CD010E944900BD
:10115000DC01CB019AA389A30FC089E190E098A399
:101160008F8F8F8D98A10197F1F798A38F8F89A109
:101170009AA101979AA389A389A19AA1009769F7D7
:1011800014C06BA17CA18DA19EA10E944900DC012D
:10119000CB019AA389A389A19AA19E8F8D8F8D8D52
:1011A0009E8D0197F1F79E8F8D8FABE3B0E0EBE35F
:1011B000F0E08081282F2F70FE01ED59FF4F8081D4
:1011C000882F90E082959295907F9827807F98272E
:1011D000822B8C9380E090E0A0E8BFE3898F9A8F08
:1011E000AB8FBC8F698D7A8D8B8D9C8D20E030E02C
:1011F0004AE753E40E941F02DC01CB018D8B9E8BDA
:10120000AF8BB88F6D897E898F89988D20E030E013
:1012100040E85FE30E94790388232CF481E090E0AA
:101220009C8B8B8B3FC06D897E898F89988D20E048
:101230003FEF4FE757E40E94190318164CF5698DEC
:101240007A8D8B8D9C8D20E030E040E251E40E944D
:101250001F02DC01CB01BC01CD010E944900DC0171
:10126000CB019C8B8B8B0FC089E190E09A8B898B93
:1012700089899A890197F1F79A8B898B8B899C8947
:1012800001979C8B8B8B8B899C89009769F714C085
:101290006D897E898F89988D0E944900DC01CB0180
:1012A0009C8B8B8B8B899C89988B8F878F8598895A
:1012B0000197F1F7988B8F87ABE3B0E0EBE3F0E0B9
:1012C0008081877F8C9380E090E0A0E8BFE38B87EC
:1012D0009C87AD87BE876B857C858D859E8520E04C
:1012E00030E04AE753E40E941F02DC01CB018F8308
:1012F0009887A987BA876F81788589859A8520E044
:1013000030E040E85FE30E94790388232CF481E019
:1013100090E09E838D833FC06F81788589859A8513
:1013200020E03FEF4FE757E40E94190318164CF5F1
:101330006B857C858D859E8520E030E040E251E420
:101340000E941F02DC01CB01BC01CD010E944900BB
:10135000DC01CB019E838D830FC089E190E09C83EB
:101360008B838B819C810197F1F79C838B838D818B
:101370009E8101979E838D838D819E81009769F761
:1013800014C06F81788589859A850E944900DC01A7
:10139000CB019E838D838D819E819A8389838981F0
:1013A0009A810197F1F79A838983CD59DF4F0FB660
:1013B000F894DEBF0FBECDBFCF91DF911F910F918B
:1013C00008950F931F93DF93CF93CDB7DEB7C35626
:1013D000D0400FB6F894DEBF0FBECDBFFE01ED5971
:1013E000FF4F8083ABE3B0E0EBE3F0E0808182600D
:1013F0008C93ABE3B0E0EBE3F0E080818B7F8C93E8
:10140000FE01E15AFF4F80E090E0A0E8BFE3808357
:101410009183A283B3838E01055A1F4FFE01E15AC7
:10142000FF4F608171818281938120E030E04AE743
:1014300053E40E941F02DC01CB01F80180839183F9
:10144000A283B383FE01E55AFF4F608171818281DF
:10145000938120E030E040E85FE30E947903882335
:1014600044F4FE01E75AFF4F81E090E091838083CE
:1014700064C0FE01E55AFF4F6081718182819381D2
:1014800020E03FEF4FE757E40E94190318160CF0D5
:1014900043C0FE01E15AFF4F6081718182819381D7
:1014A00020E030E040E251E40E941F02DC01CB0169
:1014B0008E01075A1F4FBC01CD010E944900DC017B
:1014C000CB01F801918380831FC0FE01E95AFF4FD1
:1014D00089E190E091838083FE01E95AFF4F80818A
:1014E00091810197F1F7FE01E95AFF4F91838083C3
:1014F000DE01A75ABF4FFE01E75AFF4F808191815D
:10150000019711969C938E93FE01E75AFF4F8081BD
:1015100091810097D1F627C08E01075A1F4FFE0117
:10152000E55AFF4F60817181828193810E94490059
:10153000DC01CB01F80191838083DE01AB5ABF4F00
:10154000FE01E75AFF4F808191818D939C93FE01AC
:10155000EB5AFF4F808191810197F1F7FE01EB5A21
:10156000FF4F91838083ABE3B0E0EBE3F0E0808159
:1015700088608C93FE01EF5AFF4F80E090E0A0E876
:10158000BFE380839183A283B3838E01035B1F4FEC
:10159000FE01EF5AFF4F608171818281938120E0CB
:1015A00030E04AE753E40E941F02DC01CB01F8015E
:1015B00080839183A283B383FE01E35BFF4F60814D
:1015C00071818281938120E030E040E85FE30E94F6
:1015D0007903882344F4FE01E55BFF4F81E090E04E
:1015E0009183808364C0FE01E35BFF4F6081718162
:1015F0008281938120E03FEF4FE757E40E94190377
:1016000018160CF043C0FE01EF5AFF4F6081718144
:101610008281938120E030E040E251E40E941F0289
:10162000DC01CB018E01055B1F4FBC01CD010E9487
:101630004900DC01CB01F801918380831FC0FE01CA
:10164000E75BFF4F89E190E091838083FE01E75BD8
:10165000FF4F808191810197F1F7FE01E75BFF4F1A
:1016600091838083DE01A55BBF4FFE01E55BFF4FE9
:1016700080819181019711969C938E93FE01E55B89
:10168000FF4F808191810097D1F627C08E01055BC5
:101690001F4FFE01E35BFF4F608171818281938167
:1016A0000E944900DC01CB01F80191838083DE01B7
:1016B000A95BBF4FFE01E55BFF4F808191818D9358
:1016C0009C93FE01E95BFF4F808191810197F1F7C7
:1016D000FE01E95BFF4F91838083ABE3B0E0EBE376
:1016E000F0E08081982F9F70FE01ED59FF4F8081BF
:1016F000807F892B8C93FE01ED5BFF4F80E090E0B3
:10170000A0E8BFE380839183A283B3838E01015C51
:101710001F4FFE01ED5BFF4F6081718182819381DC
:1017200020E030E04AE753E40E941F02DC01CB01D5
:10173000F80180839183A283B383FE01FF966081C9
:1017400071818281938120E030E040E85FE30E9474
:10175000790388232CF481E090E09EAF8DAF46C0E2
:10176000FE01FF96608171818281938120E03FEFCD
:101770004FE757E40E941903181664F5FE01ED5B6C
:10178000FF4F608171818281938120E030E040E2EF
:1017900051E40E941F02DC01CB01BC01CD010E947B
:1017A0004900DC01CB019EAF8DAF0FC089E190E015
:1017B0009CAF8BAF8BAD9CAD0197F1F79CAF8BAF1E
:1017C0008DAD9EAD01979EAF8DAF8DAD9EAD009757
:1017D00069F716C0FE01FF96608171818281938155
:1017E0000E944900DC01CB019EAF8DAF8DAD9EAD57
:1017F0009AAF89AF89AD9AAD0197F1F79AAF89AFEA
:10180000ABE3B0E0EBE3F0E08081877F8C9380E096
:1018100090E0A0E8BFE38DAB9EABAFABB8AF6DA9D6
:101820007EA98FA998AD20E030E04AE753E40E94FA
:101830001F02DC01CB0189AB9AABABABBCAB69A996
:101840007AA98BA99CA920E030E040E85FE30E94E0
:10185000790388232CF481E090E098AB8FA73FC0F8
:1018600069A97AA98BA99CA920E03FEF4FE757E42B
:101870000E94190318164CF56DA97EA98FA998AD81
:1018800020E030E040E251E40E941F02DC01CB0185
:10189000BC01CD010E944900DC01CB0198AB8FA7B0
:1018A0000FC089E190E09EA78DA78DA59EA5019709
:1018B000F1F79EA78DA78FA598A9019798AB8FA741
:1018C0008FA598A9009769F714C069A97AA98BA96F
:1018D0009CA90E944900DC01CB0198AB8FA78FA582
:1018E00098A99CA78BA78BA59CA50197F1F79CA70E
:1018F0008BA7ABE3B0E0EBE3F0E0808188608C93F2
:1019000080E090E0A0E8BFE38FA398A7A9A7BAA7BB
:101910006FA178A589A59AA520E030E04AE753E4B5
:101920000E941F02DC01CB018BA39CA3ADA3BEA32D
:101930006BA17CA18DA19EA120E030E040E85FE397
:101940000E94790388232CF481E090E09AA389A374
:101950003FC06BA17CA18DA19EA120E03FEF4FE78E
:1019600057E40E94190318164CF56FA178A589A5B4
:101970009AA520E030E040E251E40E941F02DC0121
:10198000CB01BC01CD010E944900DC01CB019AA32F
:1019900089A30FC089E190E098A38F8F8F8D98A1C4
:1019A0000197F1F798A38F8F89A19AA101979AA324
:1019B00089A389A19AA1009769F714C06BA17CA1A2
:1019C0008DA19EA10E944900DC01CB019AA389A3AD
:1019D00089A19AA19E8F8D8F8D8D9E8D0197F1F794
:1019E0009E8F8D8FABE3B0E0EBE3F0E08081282F9A
:1019F0002F70FE01ED59FF4F8081882F90E0829576
:101A00009295907F9827807F9827822B8C9380E0F7
:101A100090E0A0E8BFE3898F9A8FAB8FBC8F698D70
:101A20007A8D8B8D9C8D20E030E04AE753E40E9454
:101A30001F02DC01CB018D8B9E8BAF8BB88F6D8924
:101A40007E898F89988D20E030E040E85FE30E9436
:101A5000790388232CF481E090E09C8B8B8B3FC032
:101A60006D897E898F89988D20E03FEF4FE757E49D
:101A70000E94190318164CF5698D7A8D8B8D9C8DFB
:101A800020E030E040E251E40E941F02DC01CB0183
:101A9000BC01CD010E944900DC01CB019C8B8B8BEA
:101AA0000FC089E190E09A8B898B89899A89019787
:101AB000F1F79A8B898B8B899C8901979C8B8B8BF7
:101AC0008B899C89009769F714C06D897E898F89FD
:101AD000988D0E944900DC01CB019C8B8B8B8B89FC
:101AE0009C89988B8F878F8598890197F1F7988BC0
:101AF0008F87ABE3B0E0EBE3F0E08081877F8C93EE
:101B000080E090E0A0E8BFE38B879C87AD87BE872D
:101B10006B857C858D859E8520E030E04AE753E427
:101B20000E941F02DC01CB018F839887A987BA87A7
:101B30006F81788589859A8520E030E040E85FE311
:101B40000E94790388232CF481E090E09E838D83AA
:101B50003FC06F81788589859A8520E03FEF4FE708
:101B600057E40E94190318164CF56B857C858D850A
:101B70009E8520E030E040E251E40E941F02DC013B
:101B8000CB01BC01CD010E944900DC01CB019E8349
:101B90008D830FC089E190E09C838B838B819C8136
:101BA0000197F1F79C838B838D819E8101979E83A2
:101BB0008D838D819E81009769F714C06F81788530
:101BC00089859A850E944900DC01CB019E838D8323
:101BD0008D819E819A83898389819A810197F1F70A
:101BE0009A838983CD59DF4F0FB6F894DEBF0FBEBD
:101BF000CDBFCF91DF911F910F910895DF93CF93C8
:101C000000D0CDB7DEB79A8389830AC0E981FA8113
:101C100080810E94E10989819A8101969A83898352
:101C2000E981FA818081882389F70F900F90CF9105
:101C3000DF910895DF93CF9300D000D00F92CDB7FE
:101C4000DEB78A836B838A81282F30E03D832C8323
:101C50008C819D81009731F02C813D8121303105AF
:101C600021F006C08B81898303C08B81805C8983CE
:101C7000898180680E94C4050F900F900F900F908B
:101C80000F90CF91DF910895DF93CF93CDB7DEB75B
:101C900061970FB6F894DEBF0FBECDBF898B8989DF
:101CA000882F90E09E012F5F3F4FB9014AE050E03E
:101CB0000E940B1CCE0101960E94FE0D61960FB68C
:101CC000F894DEBF0FBECDBFCF91DF910895DF93B3
:101CD000CF93CDB7DEB728970FB6F894DEBF0FBE0F
:101CE000CDBF8B836C835E834D8319828B81282FBC
:101CF00030E038872F838F819885009731F02F81CE
:101D000038852130310521F006C08C818A8303C0DB
:101D10008C81805C8A838A8180680E94C40510C09F
:101D20008981282F30E08D819E81FC01E20FF31F15
:101D300080810E94E1098D819E8101969E838D8321
:101D4000ED81FE818081882359F728960FB6F8949B
:101D5000DEBF0FBECDBFCF91DF910895DF93CF934C
:101D6000CDB7DEB781E00E94C405CF91DF91089521
:101D7000DF93CF93CDB7DEB780919200909193001F
:101D8000009729F0E0919200F09193000995CF918E
:101D9000DF910895DF93CF93CDB7DEB780919400A4
:101DA00090919500009729F0E0919400F0919500B2
:101DB0000995CF91DF910895DF93CF93CDB7DEB72B
:101DC0008091920090919300009729F0E091920009
:101DD000F09193000995CF91DF910895DF93CF9310
:101DE000CDB7DEB78091940090919500009729F0CF
:101DF000E0919400F09195000995CF91DF910895BD
:101E0000DF93CF9300D0CDB7DEB79A8389838981E2
:101E10009A8190939300809392000F900F90CF91AE
:101E2000DF910895DF93CF9300D0CDB7DEB79A83CB
:101E3000898389819A8190939500809394000F9073
:101E40000F90CF91DF910895DF93CF93CDB7DEB799
:101E500029970FB6F894DEBF0FBECDBF1982198245
:101E600083C48981882F90E0880F991F9C01220FDD
:101E7000331F220F331F820F931FFC01EA58FF4FBD
:101E80008081282F30E0398728878885998581309F
:101E9000910509F4F5C0288539852230310509F40A
:101EA00077C388859985009709F05BC4E2E5F0E087
:101EB0001082A3E5B0E08981882F90E0880F991FF8
:101EC0009C01220F331F220F331F820F931FFC012F
:101ED000E858FF4F80818068482F8981882F90E0E3
:101EE000880F991F9C01220F331F220F331F820F6F
:101EF000931FFC01E758FF4F8081882F90E082708C
:101F00009070880F991F880F991F482B8981882FFF
:101F100090E0880F991F9C01220F331F220F331F5F
:101F2000820F931FFC01E758FF4F8081882F90E0BC
:101F30008170907000249695879507949695879563
:101F40000794982F802D482B8981882F90E0880F47
:101F5000991F9C01220F331F220F331F820F931FE3
:101F6000FC01E458FF4F8081882F90E08295929584
:101F7000907F9827807F9827842B8C938981882F46
:101F800090E0880F991F9C01220F331F220F331FEF
:101F9000820F931FFC01E758FF4F8081282F30E00C
:101FA0003F832E838E819F818230910531F12E8176
:101FB0003F812330310509F44EC08E819F81009707
:101FC00009F0CFC38981882F90E0880F991F9C0169
:101FD000220F331F220F331F820F931FFC01E9587A
:101FE000FF4F8081882309F4BCC3A9E5B0E0E9E58F
:101FF000F0E0808181608C93B4C38981882F90E068
:10200000880F991F9C01220F331F220F331F820F4D
:10201000931FFC01E958FF4F8081882339F0A9E51F
:10202000B0E0E9E5F0E0808182608C93ACE5B0E05F
:102030008981882F90E0880F991F9C01220F331F00
:10204000220F331F820F931FFC01E658FF4F808140
:1020500091818C9386C3ACE5B0E08981882F90E0B4
:10206000880F991F9C01220F331F220F331F820FED
:10207000931FFC01E658FF4F808191818C9371C3BF
:10208000ECE4F0E011821082EFE4F0E01082EEE484
:10209000F0E01082AFE4B0E0EFE4F0E08081482FA0
:1020A0004C7F8981882F90E0880F991F9C01220F17
:1020B000331F220F331F820F931FFC01E758FF4F7E
:1020C00080818370842B8C93AEE4B0E0EEE4F0E08A
:1020D0008081482F477E8981882F90E0880F991F43
:1020E0009C01220F331F220F331F820F931FFC010D
:1020F000E758FF4F8081882F90E0880F991F8871E3
:10210000842B8C93AEE4B0E0EEE4F0E08081582FB5
:10211000EEE4F0E08081482F487F8981882F90E0AD
:10212000880F991F9C01220F331F220F331F820F2C
:10213000931FFC01E858FF4F8081842B852B8C93E3
:102140008981882F90E0880F991F9C01220F331FEF
:10215000220F331F820F931FFC01E758FF4F80812E
:10216000282F30E03D832C838C819D818130910527
:1021700009F4AAC02C813D812430310509F482C0C4
:102180008C819D81009709F0ECC28981882F90E0B5
:10219000880F991F9C01220F331F220F331F820FBC
:1021A000931FFC01EC58FF4F8081882309F04FC03A
:1021B000A1E3B0E0E1E3F0E080818F7B8C93E7E482
:1021C000F0E01082E6E4F0E01082EDE4F0E010824E
:1021D000ECE4F0E01082A9E5B0E0E9E5F0E0808110
:1021E00080628C938981282F30E0C901880F991F64
:1021F000880F991F820F931F0196880F991FFC016A
:10220000ED58FF4F8081813041F4AEE4B0E0EEE460
:10221000F0E0808180648C931AC08981282F30E09F
:10222000C901880F991F880F991F820F931F01966C
:10223000880F991FFC01ED58FF4F8081882339F4E6
:10224000AEE4B0E0EEE4F0E080818F7B8C93898196
:10225000882F90E0880F991F9C01220F331F220FB7
:10226000331F820F931FFC01E958FF4F80818823A1
:1022700009F477C2A9E5B0E0E9E5F0E08081846087
:102280008C936FC28981882F90E0880F991F9C01E1
:10229000220F331F220F331F820F931FFC01E958B7
:1022A000FF4F8081882339F0A9E5B0E0E9E5F0E04F
:1022B000808180618C93EBE4F0E083E18083EAE449
:1022C000F0E084E280834DC2AFE4B0E0EFE4F0E000
:1022D0008081877F8C93AFE4B0E0EFE4F0E0808111
:1022E0008B7F8C938981882F90E0880F991F9C01A8
:1022F000220F331F220F331F820F931FFC01ED5853
:10230000FF4F8081882309F06EC0A1E3B0E0E1E3D4
:10231000F0E0808180628C938981882F90E0880F23
:10232000991F9C01220F331F220F331F820F931F0F
:10233000FC01E458FF4F8081843008F012C2AFE402
:10234000B0E0EFE4F0E08081482FEFE4F0E080813E
:10235000582F5F738981882F90E0880F991F9C0107
:10236000220F331F220F331F820F931FFC01E458EB
:10237000FF4F8081882F90E00024969587950794E1
:10238000969587950794982F802D852B842B8C9379
:10239000ABE4B0E08981882F90E0880F991F9C0101
:1023A000220F331F220F331F820F931FFC01E658A9
:1023B000FF4F80819181892F99278C93AAE4B0E007
:1023C0008981882F90E0880F991F9C01220F331F6D
:1023D000220F331F820F931FFC01E658FF4F8081AD
:1023E00091818C93BEC18981882F90E0880F991FBD
:1023F0009C01220F331F220F331F820F931FFC01FA
:10240000ED58FF4F8081813009F0ABC1A1E3B0E00E
:10241000E1E3F0E0808180638C938981882F90E0F4
:10242000880F991F9C01220F331F220F331F820F29
:10243000931FFC01E458FF4F8081843008F091C164
:10244000AFE4B0E0EFE4F0E08081482FEFE4F0E0AB
:102450008081582F5F738981882F90E0880F991FA2
:102460009C01220F331F220F331F820F931FFC0189
:10247000E458FF4F8081882F90E00024969587953F
:102480000794969587950794982F802D852B842BFC
:102490008C93AFE4B0E0EFE4F0E08081482FEFE40C
:1024A000F0E08081582F5F7C8981882F90E0880F31
:1024B000991F9C01220F331F220F331F820F931F7E
:1024C000FC01E458FF4F8081882F90E0829592951F
:1024D000907F9827807F98278073852B842B8C93FF
:1024E000ABE4B0E08981882F90E0880F991F9C01B0
:1024F000220F331F220F331F820F931FFC01E65858
:10250000FF4F80819181892F99278C93AAE4B0E0B5
:102510008981882F90E0880F991F9C01220F331F1B
:10252000220F331F820F931FFC01E658FF4F80815B
:1025300091818C93A9E4B0E08981882F90E0880F85
:10254000991F9C01220F331F220F331F820F931FED
:10255000FC01E658FF4F80819181882F90E0892F00
:10256000990F990B8C93A8E4B0E08981882F90E0B3
:10257000880F991F9C01220F331F220F331F820FD8
:10258000931FFC01E658FF4F808191818C93E9C035
:10259000E4E4F0E01082A5E4B0E08981882F90E0C7
:1025A000880F991F9C01220F331F220F331F820FA8
:1025B000931FFC01E858FF4F80818068482F898174
:1025C000882F90E0880F991F9C01220F331F220F44
:1025D000331F820F931FFC01E758FF4F8081882F24
:1025E00090E082709070880F991F880F991F482B78
:1025F0008981882F90E0880F991F9C01220F331F3B
:10260000220F331F820F931FFC01E758FF4F808179
:10261000882F90E08170907000249695879507949C
:10262000969587950794982F802D482B8981882F20
:1026300090E0880F991F9C01220F331F220F331F38
:10264000820F931FFC01E458FF4F8081882F90E098
:1026500082959295907F9827807F9827842B8C93E2
:102660008981882F90E0880F991F9C01220F331FCA
:10267000220F331F820F931FFC01E758FF4F808109
:10268000282F30E03B832A838A819B818230910509
:1026900031F12A813B812330310509F44EC08A8112
:1026A0009B81009709F05DC08981882F90E0880F99
:1026B000991F9C01220F331F220F331F820F931F7C
:1026C000FC01E958FF4F8081882309F44AC0A9E53D
:1026D000B0E0E9E5F0E0808180648C9342C08981BC
:1026E000882F90E0880F991F9C01220F331F220F23
:1026F000331F820F931FFC01E958FF4F808188230D
:1027000039F0A9E5B0E0E9E5F0E0808180688C93DC
:10271000A3E4B0E08981882F90E0880F991F9C0185
:10272000220F331F220F331F820F931FFC01E65825
:10273000FF4F808191818C9314C0A3E4B0E0898124
:10274000882F90E0880F991F9C01220F331F220FC2
:10275000331F820F931FFC01E658FF4F8081918148
:102760008C9389818F5F89838981833008F479CB49
:1027700029960FB6F894DEBF0FBECDBFCF91DF9183
:102780000895DF93CF930F92CDB7DEB719821982E8
:102790004EC08981882F90E0880F991F9C01220FDD
:1027A000331F220F331F820F931FFC01EA58FF4F84
:1027B0008081882339F4A7E3B0E0E7E3F0E080818B
:1027C00088608C938981882F90E0880F991F9C01E5
:1027D000220F331F220F331F820F931FFC01EA5871
:1027E000FF4F8081823039F4A1E3B0E0E1E3F0E013
:1027F000808180688C938981882F90E0880F991F51
:102800009C01220F331F220F331F820F931FFC01E5
:10281000EA58FF4F8081813039F4A1E3B0E0E1E371
:10282000F0E0808180628C9389818F5F89838981C8
:10283000833008F4AECF0F90CF91DF9108950F93BE
:10284000DF93CF93CDB7DEB7CF55D0400FB6F89416
:10285000DEBF0FBECDBF29833A834B835C836D837C
:102860007E838F83988709878985882309F01AC119
:1028700007C1E8E5F0E08081882F90E081709070DA
:102880000097B9F3809199008F5F809399008091B0
:1028900099008F3109F0EDC01092990089818A87E3
:1028A0009A819B878B818C879C819D878D818E8768
:1028B0009E819F878F81888B9885998B8FEF8A8BDC
:1028C0009FEF9B8B8FEF8C8B9FEF9D8B8FEF8E8B72
:1028D0009FEF9F8B8FEF888F9FEF998F8A859A89C3
:1028E000890F8A8F81E08AA39A8D8A85981708F0CC
:1028F0001AA29B858B89980F9B8F91E09BA38B8D50
:102900009B85891708F01BA28AA19B8D890F8CA338
:1029100081E08DA39CA18B8D981708F01DA29BA12F
:102920008DA1982B9BA39CA19B8F8C859C89890F43
:102930008C8F81E08EA39C8D8C85981708F01EA249
:102940009BA18C8D980F9FA391E098A78FA19C8D40
:10295000891708F018A68EA198A5892B8EA38FA1A0
:102960008C8F9D858D89980F9D8F91E099A78D8D76
:102970009D85891708F019A68EA19D8D890F8AA7BC
:1029800081E08BA79AA58D8D981708F01BA699A5B5
:102990008BA5982B99A79AA59D8F8E859E89890FC7
:1029A0008E8F81E08CA79E8D8E85981708F01CA6CF
:1029B00099A58E8D980F9DA791E09EA78DA59E8DC0
:1029C000891708F01EA68CA59EA5892B8CA78DA51E
:1029D0008E8F9F858F89980F9F8F91E09FA78F8DF6
:1029E0009F85891708F01FA68CA59F8D890F88AB3E
:1029F00081E089AB98A98F8D981708F019AA9FA537
:102A000089A9982B9FA798A99F8F8889988D890F4E
:102A100088A381E08AAB98A18889981708F01AAA40
:102A20009FA588A1980F9BAB91E09CAB8BA998A127
:102A3000891708F01CAA8AA99CA9892B8AAB8BA9A3
:102A400088A39989898D980F99A38AA999A1890F3B
:102A500089A38A8D89839B8D9A838C8D8B839D8D91
:102A60009C838E8D8D839F8D9E8388A18F8399A15A
:102A70009887A8E5B0E0E8E5F0E0808181608C937C
:102A800089819A81892B9B81892B9C81892B9D81AE
:102A9000892B9E81892B9F81892B9885892B88235F
:102AA00009F0E7CE8985813009F00EC2FBC1E8E567
:102AB000F0E08081882F90E0807490700097B9F3E7
:102AC000809199008F5F80939900809199008F3158
:102AD00009F0E1C11092990089818DAB9A819EAB7A
:102AE0008B818FAB9C8198AF8D8189AF9E819AAF8E
:102AF0008F818BAF98859CAF8FEF8DAF9FEF9EAF8F
:102B00008FEF8FAF9FEF21969FAF21978FEF229688
:102B10008FAF22979FEF23969FAF23978FEF249637
:102B20008FAF24979FEF25969FAF25978DA99DADD9
:102B3000890F26968FAF269781E02E968FAF2E971E
:102B400026969FAD26978DA9981718F02E961FAE42
:102B50002E979EA98EAD980F27969FAF279791E04D
:102B60002F969FAF2F9727968FAD27979EA98917EE
:102B700018F02F961FAE2F972E968FAD2E97279673
:102B80009FAD2797890F60968FAF609781E0619620
:102B90008FAF619760969FAD609727968FAD27970F
:102BA000981718F061961FAE61972F969FAD2F97DB
:102BB00061968FAD6197982B2F969FAF2F97609658
:102BC0009FAD609727969FAF27978FA99FAD890FDD
:102BD00028968FAF289781E062968FAF62972896EC
:102BE0009FAD28978FA9981718F062961FAE62972D
:102BF0002F969FAD2F9728968FAD2897980F6396A5
:102C00009FAF639791E064969FAF649763968FAD93
:102C1000639728969FAD2897891718F064961FAE82
:102C2000649762968FAD629764969FAD6497892B87
:102C300062968FAF629763968FAD639728968FAF3A
:102C4000289798AD21968FAD2197980F29969FAF21
:102C5000299791E065969FAF659729968FAD299743
:102C600098AD891718F065961FAE659762968FAD7F
:102C7000629729969FAD2997890F66968FAF6697C1
:102C800081E067968FAF679766969FAD66972996A6
:102C90008FAD2997981718F067961FAE67976596BE
:102CA0009FAD659767968FAD6797982B65969FAF99
:102CB000659766969FAD669729969FAF299789ADD0
:102CC00022969FAD2297890F2A968FAF2A9781E08F
:102CD00068968FAF68972A969FAD2A9789AD981707
:102CE00018F068961FAE689765969FAD65972A960F
:102CF0008FAD2A97980F69969FAF699791E06A9672
:102D00009FAF6A9769968FAD69972A969FAD2A976C
:102D1000891718F06A961FAE6A9768968FAD689704
:102D20006A969FAD6A97892B68968FAF6897699668
:102D30008FAD69972A968FAF2A979AAD23968FAD5C
:102D40002397980F2B969FAF2B9791E06B969FAF91
:102D50006B972B968FAD2B979AAD891718F06B96C2
:102D60001FAE6B9768968FAD68972B969FAD2B978C
:102D7000890F6C968FAF6C9781E06D968FAF6D97D2
:102D80006C969FAD6C972B968FAD2B97981718F07C
:102D90006D961FAE6D976B969FAD6B976D968FADD1
:102DA0006D97982B6B969FAF6B976C969FAD6C97BA
:102DB0002B969FAF2B978BAD24969FAD2497890FB1
:102DC0002C968FAF2C9781E06E968FAF6E972C96D6
:102DD0009FAD2C978BAD981718F06E961FAE6E971F
:102DE0006B969FAD6B972C968FAD2C97980F6F9627
:102DF0009FAF6F9791E0A0969FAFA0976F968FAD12
:102E00006F972C969FAD2C97891718F0A0961FAE40
:102E1000A0976E968FAD6E97A0969FADA097892BC9
:102E20006E968FAF6E976F968FAD6F972C968FAF14
:102E30002C979CAD25968FAD2597980F2D969FAF1B
:102E40002D976E968FAD6E972D969FAD2D97890F0E
:102E50002D968FAF2D9726968FAD2697898327962F
:102E60009FAD27979A8328968FAD28978B832996B5
:102E70009FAD29979C832A968FAD2A978D832B9699
:102E80009FAD2B979E832C968FAD2C978F832D967D
:102E90009FAD2D979887A8E5B0E0E8E5F0E0808148
:102EA00080648C9389819A81892B9B81892B9C8159
:102EB000892B9D81892B9E81892B9F81892B9885C8
:102EC000892B882309F0F3CDC15ADF4F0FB6F89450
:102ED000DEBF0FBECDBFCF91DF910F910895DF937D
:102EE000CF93CDB7DEB7EB970FB6F894DEBF0FBE2A
:102EF000CDBF80919A008F5F80939A0080919A0055
:102F00008F3109F0F6C080919B00898B90919C00D5
:102F10009A8B80919D008B8B90919E009C8B8091D1
:102F20009F008D8B9091A0009E8B8091A1008F8B34
:102F30009091A200988F81E0898F1A8E1B8E1C8E33
:102F40001D8E1E8E1F8E18A29989898D980F99A3A8
:102F500091E099A789A19989891708F019A68A890A
:102F60009A8D890F8AA381E08AA79AA18A899817E6
:102F700008F01AA699A58AA1980F9BA791E09CA793
:102F80008BA59AA1891708F01CA68AA59CA5892B58
:102F90008AA78BA58AA39B898B8D980F9BA391E011
:102FA0009DA78BA19B89891708F01DA68AA59BA1C7
:102FB000890F8EA781E08FA79EA58BA1981708F097
:102FC0001FA69DA58FA5982B9DA79EA59BA38C8929
:102FD0009C8D890F8CA381E088AB9CA18C8998176C
:102FE00008F018AA9DA58CA1980F99AB91E09AAB17
:102FF00089A99CA1891708F01AAA88A99AA9892BDE
:1030000088AB89A98CA39D898D8D980F9DA391E094
:103010009BAB8DA19D89891708F01BAA88A99DA14A
:10302000890F8CAB81E08DAB9CA98DA1981708F01E
:103030001DAA9BA98DA9982B9BAB9CA99DA38E89AA
:103040009E8D890F8EA381E08EAB9EA18E899817ED
:1030500008F01EAA9BA98EA1980F9FAB91E098AF94
:103060008FA99EA1891708F018AE8EA998AD892B5B
:103070008EAB8FA98EA39F898F8D980F9FA391E010
:1030800099AF8FA19F89891708F019AE8EA99FA1CA
:10309000890F8AAF81E08BAF9AAD8FA1981708F0A6
:1030A0001BAE99AD8BAD982B99AF9AAD9FA3888D30
:1030B00098A1890F88A789AD98A5890F88A729A10C
:1030C0003AA14BA15CA16DA17EA18FA198A52093EF
:1030D0009B0030939C0040939D0050939E00609312
:1030E0009F007093A0008093A1009093A200109283
:1030F0009A0080919B00898790919C009A8780918B
:103100009D008B8790919E009C8780919F008D876A
:103110009091A0009E878091A1008F879091A2003E
:10312000988B8091A40089839091A5009A838091C7
:10313000A6008B839091A7009C838091A8008D832B
:103140009091A9009E838091AA008F839091AB00FB
:103150009887898599818917B9F58A859A81891710
:1031600099F58B859B81891779F58C859C818917C9
:1031700059F58D859D81891739F58E859E81891731
:1031800019F58F859F818917F9F4888998858917A2
:10319000D9F48091940090919500009729F0E091E6
:1031A0009400F0919500099510929B0010929C005C
:1031B00010929D0010929E0010929F001092A0000D
:1031C0001092A1001092A200EB960FB6F894DEBF09
:1031D0000FBECDBFCF91DF910895EF92FF920F9375
:1031E0001F93DF93CF93CDB7DEB72B970FB6F8942D
:1031F000DEBF0FBECDBF89830A831B832C833D8333
:103200004E835F8368877987FB86EA868A8180930D
:10321000A4008B818093A5008C818093A6008D8172
:103220008093A7008E818093A8008F818093A9004E
:1032300088858093AA0089858093AB008FE697E10B
:1032400090939300809392008A859B85909395003C
:10325000809394002B960FB6F894DEBF0FBECDBFBF
:10326000CF91DF911F910F91FF90EF900895DF9321
:10327000CF93CDB7DEB7809196008F5F8093960095
:1032800080919600482F50E08091A300282F30E0D5
:1032900084E690E0821B930B4817590739F4A5E3A5
:1032A000B0E0E5E3F0E0808181608C93809196004E
:1032B000843649F4A5E3B0E0E5E3F0E080818E7F59
:1032C0008C9310929600CF91DF910895DF93CF9366
:1032D00000D00F92CDB7DEB78A836B838A818823B3
:1032E000E9F48B81482F50E0CA019C01220F331F63
:1032F000C9019695982F882797958795821B930BE0
:10330000840F951F24E630E0B9010E94AD1BCB016C
:103310008983ECE5F0E08981808349C08A8182302D
:10332000E9F48B81482F50E0CA019C01220F331F22
:10333000C9019695982F882797958795821B930B9F
:10334000840F951F24E630E0B9010E94AD1BCB012C
:103350008983E3E4F0E08981808329C08A81813018
:1033600031F58B81482F50E0CA019C01220F331F99
:10337000C9019695982F882797958795821B930B5F
:10338000840F951F24E630E0B9010E94AD1BCB01EC
:103390008983E8E4F0E08981882F90E0918380833D
:1033A000EAE4F0E08981882F90E0918380830F9098
:1033B0000F900F90CF91DF910895DF93CF9300D0BE
:1033C000CDB7DEB719824DC0E4E3F0E08981282F44
:1033D00030E080E290E002C0880F991F2A95E2F762
:1033E0008083E5E3F0E08981282F30E080E290E0FF
:1033F000022E02C0880F991F0A94E2F780958C7FF5
:10340000808382E08A8327C0E3E3F0E08081282F75
:1034100030E08A81882F90E0A90102C05595479538
:103420008A95E2F7CA0181709070009789F48A81C9
:10343000282F30E0C901880F991F820F931F982F02
:103440008981890F85500F900F90CF91DF9108955A
:103450008A818F5F8A838A818530B0F289818F5F0C
:1034600089838981833008F4AFCFACCFDF93CF93CA
:10347000CDB7DEB72F970FB6F894DEBF0FBECDBF26
:10348000A1E3B0E0E1E3F0E08081887F8C93E7E3A3
:10349000F0E010821F860E94A3050E94011B20E617
:1034A00030E080E060E0A9010E94670E0E94DD1913
:1034B0008F8780E090E0A0EFB1E48B879C87AD8799
:1034C000BE876B857C858D859E8520E030E04AE750
:1034D00053E40E941F02DC01CB018F839887A987E8
:1034E000BA876F81788589859A8520E030E040E849
:1034F0005FE30E94790388232CF481E090E09E83AF
:103500008D833FC06F81788589859A8520E03FEF64
:103510004FE757E40E94190318164CF56B857C851C
:103520008D859E8520E030E040E251E40E941F023C
:10353000DC01CB01BC01CD010E944900DC01CB01C3
:103540009E838D830FC089E190E09C838B838B8168
:103550009C810197F1F79C838B838D819E810197DC
:103560009E838D838D819E81009769F714C06F8142
:10357000788589859A850E944900DC01CB019E836C
:103580008D838D819E819A83898389819A81019718
:10359000F1F79A838983E6E3F0E08081882F90E059
:1035A00084709070009769F0E6E3F0E08081882FE6
:1035B00090E0847090700097C9F08F858F5F8F873F
:1035C00015C0E6E3F0E08081882F90E08270907073
:1035D000009761F0E6E3F0E08081882F90E0827050
:1035E0009070009719F08F8581508F8780E06AE096
:1035F0000E941A0E8F850E94440E8F850E941B1B0D
:1036000055CFDF93CF93CDB7DEB7EBE2F0E082E0AA
:103610008083EAE2F0E088E18083E0E4F0E086E89D
:103620008083E0E4F0E01082E9E2F0E08CE0808367
:10363000CF91DF910895DF93CF930F92CDB7DEB78F
:103640008983EBE2F0E08081882F90E080729070B7
:103650000097B9F3ECE2F0E0898180830F90CF917D
:10366000DF910895DF93CF93CDB7DEB7EBE2F0E0C3
:1036700080818823DCF7ECE2F0E08081CF91DF915C
:103680000895DF93CF9300D00F92CDB7DEB79B8321
:103690008A8319820EC08981282F30E08A819B811C
:1036A000FC01E20FF31F80810E941B1B89818F5F49
:1036B00089838981282F30E08A819B81FC01E20F78
:1036C000F31F8081882339F70F900F900F90CF91CF
:1036D000DF9108950F931F93DF93CF9300D00F9244
:1036E000CDB7DEB79B838A8319828981282F30E08A
:1036F0008A819B818C01020F131F0E94321BF801EB
:1037000080830FC089818F5F89838981282F30E072
:103710008A819B818C01020F131F0E94321BF801CA
:1037200080838981282F30E08A819B81FC01E20F10
:10373000F31F8081833231F78981282F30E08A811D
:103740009B81FC01E20FF31F10820F900F900F90EE
:10375000CF91DF911F910F91089597FB092E0726B6
:103760000AD077FD04D00CD006D000201AF4709552
:1037700061957F4F0895F6F7909581959F4F089535
:10378000AA1BBB1B51E107C0AA1FBB1FA617B70787
:1037900010F0A61BB70B881F991F5A95A9F78095A3
:1037A0009095BC01CD0108952F923F924F925F9268
:1037B0006F927F928F929F92AF92BF92CF92DF9241
:1037C000EF92FF920F931F93CF93DF93CDB7DEB7A6
:1037D000CA1BDB0B0FB6F894DEBF0FBECDBF09943A
:1037E0002A88398848885F846E847D848C849B8491
:1037F000AA84B984C884DF80EE80FD800C811B819F
:10380000AA81B981CE0FD11D0FB6F894DEBF0FBECD
:10381000CDBFED010895FB019F01E8944230C4F053
:103820004532B4F44A3029F497FB1EF49095819503
:103830009F4F642F77270E94C01B805D8A330CF056
:10384000895D8193CB010097A1F716F45DE2519356
:103850001082C9010C942C1CDC01FC01672F7191B2
:103860007723E1F7329704C07C916D937083629166
:0C387000AE17BF07C8F30895F894FFCF0F
:10387C0053706565642069733A20000000000000F5
:10388C00000000FFFFFF00000500FF0000FFFFFF2E
:10389C0002000100FF0000FFFFFFFFFFFFFFFF0022
:0238AC00FF001B
:00000001FF
